:1000000002EF00F0B4EF1AF0FF00FF00FF00FF0066
:10255000FF00FF00FF00FF00FF00FF001200D3ECB0
:1025600013F01200CDCCCC3D131B01091119212908
:10257000313901500302F3CF05F0F4CF06F00150DA
:102580000402F350062602500302F350062605C04B
:1025900001F006C002F01200010E036E015002109D
:1025A000D8A4D5EF12F0D7EF12F0DBEF12F0000E47
:1025B000036EE0EF12F001C0D9FF02C0DAFFDF6A5C
:1025C00003501200010E036E01500210D8A4EBEF6D
:1025D00012F0EDEF12F0F1EF12F0000E036EF6EFD5
:1025E00012F001C0D9FF02C0DAFFDF6A0350120007
:1025F000010E0B24016E000E0C20026E010E036E04
:1026000004EC1EF000D000D00000010E0B24016E7F
:10261000000E0C20026E000E036E04EC1EF00D6E18
:102620000D501200B8C305F0B9C306F0BAC307F0E5
:10263000BBC308F001C005F002C006F003C007F0FC
:1026400004C008F0089E05C001F006C002F007C0F3
:1026500003F008C004F0120008BE31EF13F033EFAE
:1026600013F039EF13F007C007F008C008F045EF8A
:1026700013F007C009F008C00AF0091E0A1E094A33
:102680000A2A09C007F00AC008F0120001C003F0CE
:1026900002C004F04EEF13F0014A022A01C0D9FF34
:1026A00002C0DAFFDF50D8A458EF13F05AEF13F04E
:1026B0004CEF13F00350015C016E04500258026E9F
:1026C0001200285029102A102B10D8B46AEF13F0EA
:1026D0006CEF13F074EF13F0000E281A000E291A95
:1026E000000E2A1A800E2B1A28C028F029C029F0C3
:1026F0002AC02AF02BC02BF0120001C005F002C046
:1027000006F003C0F6FF04C0F7FF034A042A05C021
:10271000D9FF06C0DAFF054A062A0800F5CFDFFF19
:10272000DF50D8A496EF13F098EF13F081EF13F079
:10273000120001500210D8A4A0EF13F0A2EF13F082
:10274000A6EF13F0000E036EB4EF13F001C0D9FF33
:1027500002C0DAFFDF50D8A4B0EF13F0B2EF13F0ED
:10276000A2EF13F0010E036E03501200015002108D
:10277000D8A4BDEF13F0BFEF13F0C3EF13F0000EBA
:10278000036ED1EF13F001C0D9FF02C0DAFFDF50B2
:10279000D8A4CDEF13F0CFEF13F0BFEF13F0010E7D
:1027A000036E03501200960E0F6E030E106E93EC24
:1027B00016F0F40E176E020E186E9AEC1EF0140E40
:1027C000016E050E026ECCEC12F0C90E016E060E03
:1027D000026EE2EC12F0000E016E060E026ECCEC00
:1027E00012F01200000E0E6E000E0D6E01EF14F0CE
:1027F0000CC001F0026A0BC003F0F5EC19F00D4AB1
:102800000E2A0D500924D96E0E500A20DA6EDF50C0
:102810000C6E0C50D8A40FEF14F011EF14F0F8EF79
:1028200013F01200C80E0001CC6FC4C0CDF0C5C0BB
:10283000CEF0000ED16F000ED06F000ED86F000EDC
:10284000D76FCD0EBE6FC6C0BFF0C7C0C0F0CC0EF4
:10285000C16F7AEC14F00001D051C425D96ED1516A
:10286000C521DA6EDF6A1200000E6D1A000E6E1AB4
:10287000000E6F1A800E701A69C045F06AC046F0EB
:102880006BC047F06CC048F06DC049F06EC04AF0B4
:102890006FC04BF070C04CF0D4EC3EF045C069F016
:1028A00046C06AF047C06BF048C06CF012001C5084
:1028B0001D10D8A45EEF14F060EF14F064EF14F074
:1028C000000E216E78EF14F01CC017F01DC018F038
:1028D0001EC019F01FC01AF0A9EC17F0216E1CC021
:1028E0000EF01DC00FF020C010F061EC17F0216E4B
:1028F00021501200BFC0C2F0C0C0C3F089EF14F075
:10290000BEC0B2F0C20E0001B36FC1C0B4F0F4ECAF
:1029100028F0C2C0F6FFC3C0F7FF0800F550000959
:10292000D8A495EF14F097EF14F080EF14F0000E98
:102930000001BF6F000EBE6F1200000E166E1A0E61
:10294000156EF80EE82EFED7152EFCD700D0960E89
:102950000B6E030E0C6E160E0D6E7AEC1DF01650FB
:10296000D8B4B5EF14F0B7EF14F09FEF14F01A0ECF
:10297000156EF80EE82EFED7152EFCD700D0165097
:10298000120001500210D8A4C8EF14F0CAEF14F0DE
:10299000CCEF14F0E5EF14F001C0D9FF02C0DAFF6C
:1029A000DF50046E04500124056E000E0220066EF6
:1029B000010E0524D96E000E0620DA6E03C0DFFF7B
:1029C00001C0D9FF02C0DAFFDF2A12000150021055
:1029D000D8B4EDEF14F0EFEF14F0F7EF14F003506C
:1029E000D8A4F5EF14F0F7EF14F0F9EF14F00DEFB1
:1029F00015F001C0D9FF02C0DAFFDF50046E056A8E
:102A000004BE050604500124D96E05500220DA6E7A
:102A10000350E16EE26ADFCFE7FF120003C00AF065
:102A200004C00BF001C008F002C009F028EF15F057
:102A30000AC0D9FF0BC0DAFFDF50076E0A4A0B2A23
:102A400008C0D9FF09C0DAFF07C0DFFF084A092A1A
:102A50000506D8A00606052806E10628D8A433EF07
:102A600015F035EF15F018EF15F0120004BE3BEF2E
:102A700015F03DEF15F047EF15F001C001F002C071
:102A800002F003C003F004C004F060EF15F001C0D1
:102A900005F002C006F003C007F004C008F0051EF0
:102AA000061E071E081E052A000E062207220822FF
:102AB00005C001F006C002F007C003F008C004F032
:102AC000120001500210D8B468EF15F06AEF15F04B
:102AD00072EF15F00350D8A470EF15F072EF15F0F7
:102AE00074EF15F08CEF15F001C0D9FF02C0DAFFCA
:102AF000DF06DF50046E04500124056E000E022034
:102B0000066E010E0524D96E000E0620DA6E035003
:102B1000E16EE26ADFCFE7FF120001500210D8A495
:102B200094EF15F096EF15F098EF15F0BDEF15F056
:102B300001C0D9FF02C0DAFFDF50076E0750040D55
:102B4000F3CF08F0F4CF09F0085001240A6E0950C1
:102B500002200B6E010E0A24D96E000E0B20DA6ED5
:102B600003C0DEFF04C0DEFF05C0DEFF06C0DEFFDF
:102B700001C0D9FF02C0DAFFDF2A12001C501D106D
:102B8000D8A4C5EF15F0C7EF15F0C9EF15F0EFEFBA
:102B900015F01CC017F01DC018F01EC019F01FC0A2
:102BA0001AF0A9EC17F0E3EF15F01CC00EF01DC0F1
:102BB0000FF020C0D9FF21C0DAFFDF50106E61ECAA
:102BC00017F0204A212A20C0D9FF21C0DAFFDF50A8
:102BD000D8A4EDEF15F0EFEF15F0D5EF15F01200DA
:102BE00013BEF7EF15F0F5EF15F0FBEF15F0000E43
:102BF000136E000E126E000E166E000E156E0BEFA9
:102C000016F0000E026E200E016E0FC003F0F5EC00
:102C100019F0154A162A1250155C1650800A146EC7
:102C20001350800A1458D8A018EF16F01AEF16F0B7
:102C300001EF16F010C009F011C00AF00FC00BF040
:102C4000F2EC13F012000B500C10D8B42AEF16F06F
:102C50002CEF16F03DEF16F00BC0D9FF0CC0DAFFD9
:102C6000DF30E832E832070B0D6E070E0D643BEFE4
:102C700016F03DEF16F041EF16F0000E0E6E57EF16
:102C800016F00BC001F00CC002F030EC1FF00E6E1D
:102C90000BC001F00CC002F00BC0D9FF0CC0DAFF72
:102CA000000EDFBE010E036E04EC1EF00E6E0E5021
:102CB000120001500210D8B460EF16F062EF16F067
:102CC0006BEF16F003500410D8A469EF16F06BEF09
:102CD00016F06DEF16F092EF16F001C0D9FF02C0AA
:102CE000DAFFDF06DF50056E0550040DF3CF06F066
:102CF000F4CF07F006500124086E07500220096E39
:102D0000010E0824D96E000E0920DA6E03C0E1FF1F
:102D100004C0E2FFDECFE6FFDECFE6FFDECFE6FF58
:102D2000DECFE6FF1200000E146E000E156E0F507F
:102D30001010D8A49EEF16F0A0EF16F0A4EF16F036
:102D4000000E136ED1EF16F0000E146E14500F2407
:102D50000B6E000E10200C6E23EC16F0142A030EDE
:102D60001464B5EF16F0B7EF16F0A6EF16F0000EEC
:102D7000156E15500F24116E000E1020126E040EE9
:102D80001124016E000E1220026E30EC1FF0136E43
:102D9000152A090E1564CFEF16F0D1EF16F0B9EF32
:102DA00016F0135012006C6F67280000000000003E
:102DB0000000000000000000000063627274280040
:102DC0000000000000000000000000000000636F31
:102DD000732D3128000000000000000000000000FA
:102DE00000007371727428000000000000000000F1
:102DF00000000000000073696E2D31280000000003
:102E00000000000000000000000074616E682800EF
:102E10000000000000000000000000000000636FE0
:102E2000736828000000000000000000000000009F
:102E30000000000E166E0E500F10D8A422EF17F0EF
:102E400024EF17F028EF17F0000E156E5FEF17F064
:102E50000EC001F00FC002F0000E036E04EC1EF075
:102E6000000E166E16500E24116E000E0F20126EFC
:102E7000020E1124016E000E1220026E16C013F015
:102E800010C014F0132A47EF17F0D8901432132E05
:102E900045EF17F01450010B036E04EC1EF0162AD8
:102EA000070E166456EF17F058EF17F032EF17F0D1
:102EB0000EC00BF00FC00CF0F8EC12F0156E1550B0
:102EC0001200000E166E0E500F10D8A46AEF17F005
:102ED0006CEF17F070EF17F0000E156EA7EF17F0FC
:102EE0000EC001F00FC002F0010E036E04EC1EF0E4
:102EF000000E166E16500E24116E000E0F20126E6C
:102F0000020E1124016E000E1220026E16C013F084
:102F100010C014F0132A8FEF17F0D8901432132E2C
:102F20008DEF17F01450010B036E04EC1EF0162AFF
:102F3000070E16649EEF17F0A0EF17F07AEF17F068
:102F40000EC00BF00FC00CF0F8EC12F0156E15501F
:102F50001200010E1B6E1A06DEEF17F017C00EF0FE
:102F600018C00FF01A50800F106E19EC17F01B6E7E
:102F7000F1EF17F017C00EF018C00FF01A50C00F85
:102F8000106E19EC17F01B6EF1EF17F017C00EF072
:102F900018C00FF01A50940F106E19EC17F01B6E3A
:102FA000F1EF17F017C00EF018C00FF01A50D40F41
:102FB000106E19EC17F01B6EF1EF17F01950010AA3
:102FC000D8B4AEEF17F0030AD8B4BAEF17F0010A7D
:102FD000D8B4C6EF17F0070AD8B4D2EF17F0F1EF64
:102FE00017F01B501200000E096E000E0A6E000E44
:102FF0000B6E000E0C6E0550061007100810D8B4AA
:1030000004EF18F006EF18F03CEF18F0010E0D6E0B
:1030100010EF18F0D89005360636073608360D2A18
:1030200008AE15EF18F017EF18F00AEF18F0D89067
:1030300009360A360B360C360550015C065002582C
:103040000750035808500458D8A029EF18F02BEF68
:1030500018F034EF18F00550015E0650025A075080
:10306000035A0850045A0980D890083207320632B1
:1030700005320D2E17EF18F009C001F00AC002F05A
:103080000BC003F00CC004F0120073696E682800D6
:10309000000000000000000000000000000074615B
:1030A0006E2D31280000000000000000000000002C
:1030B000000074616E2800000000000000000000A5
:1030C000000000000000636F732800000000000093
:1030D0000000000000000000000073696E2800007E
:1030E0000000000000000000000000000000537914
:1030F0006E746178204552524F520000000000006B
:103100000000800F810F820F830F840F890F8A0FB9
:103110008B0F8C0F8D0F920F930F940F950F960FAF
:10312000020A121A626A727A434B636B737B000E57
:103130000114096E000E02140A6E800E03140B6E49
:103140007F0E04140C6E09500A100B100C10D8A43A
:10315000ACEF18F0AEEF18F0B6EF18F0000E016EFD
:10316000000E026E000E036E000E046E000E0514BB
:10317000096E000E06140A6E800E07140B6E7F0E89
:1031800008140C6E09500A100B100C10D8A4CBEFC9
:1031900018F0CDEF18F0D5EF18F0000E056E000E08
:1031A000066E000E076E000E086E055001180FE146
:1031B000065002180CE10750031809E108500418E2
:1031C000D8B4E5EF18F0E7EF18F0EAEF18F0D89070
:1031D000EBEF18F0D8801200000E0B6E000E0A6E96
:1031E0000750D96EDA6ADECFF6FFDDCFF7FF0800B1
:1031F000F5502A0AD8A4FFEF18F001EF19F02BEFD1
:1032000019F00750D96EDA6ADE2A000EDD22085066
:10321000D96EDA6A020EDF26DF5CD96EDA6ADECF9B
:103220000AF0DECF0BF03EEF19F00AC001F00BC040
:1032300002F0000E046E0A0E036EB9EC12F0095093
:1032400001240A6E000E02200B6E0750D96EDA6A56
:10325000DE2A000EDD220750D96EDA6ADECFF6FFD5
:10326000DDCFF7FF0800F550D00F096E090E096495
:103270003CEF19F03EEF19F015EF19F00AC007F016
:103280000BC008F01200000E066E02BE4CEF19F0E3
:103290004AEF19F052EF19F0016C021ED8B0022A61
:1032A000010E066E04BE59EF19F057EF19F05DEFED
:1032B00019F0036C041ED8B0042A03500410D8B4CB
:1032C00064EF19F066EF19F08AEF19F0010E056E40
:1032D0006EEF19F0D89003360436052A04AE73EF6A
:1032E00019F075EF19F06AEF19F00350015C045002
:1032F0000258D8A07EEF19F080EF19F084EF19F092
:103300000350015E0450025AD89004320332052E55
:1033100075EF19F00650D8B490EF19F092EF19F04C
:1033200096EF19F0016C021ED8B0022A01C001F01C
:1033300002C002F01200010E096E01500210D8B452
:10334000A4EF19F0A6EF19F0BFEF19F00350D8B4AD
:10335000ACEF19F0AEEF19F0BFEF19F001C0D9FFD3
:1033600002C0DAFFDF30E832E832070B046E070EE6
:103370000464BDEF19F0BFEF19F0C3EF19F0000EB0
:10338000096EF3EF19F00350D96EDA6A01C0E1FF5C
:1033900002C0E2FFE730E832E832070B046E01C0FA
:1033A000E1FF02C0E2FFE750070B056E0550020D7A
:1033B000780EF324E16E030EF420E26EE6CF06F001
:1033C000E5CF07F006C0E1FF07C0E2FFE750086E57
:1033D000042AEDEF19F0D8900832042EEBEF19F023
:1033E0000850010BDF6E095012000350D8B4FBEFF8
:1033F00019F0FDEF19F005EF1AF00350D8A403EF10
:103400001AF005EF1AF00AEF1AF00150AEEC12F0C4
:1034100051EF1AF00350D96EDA6A0A0ED926DE503F
:10342000DE10D8B416EF1AF018EF1AF031EF1AF0D8
:103430000350D96EDA6A0A0ED9260350E16EE26AA9
:10344000030EE126DE50E65CE650800A086EDE5090
:10345000800A0858D8B02FEF1AF031EF1AF051EF68
:103460001AF00350D96EDA6A030ED926DECF04F0C3
:10347000DDCF05F00350D96EDA6ADECF06F0DDCF7E
:1034800007F004500624D96E05500720DA6E01C0FB
:10349000DFFF0350D96EDA6A030ED926DE2A000E4A
:1034A000DD221200000E066E04BE5BEF1AF059EF2B
:1034B0001AF061EF1AF0036C041ED8B0042A010E52
:1034C000066E02BE68EF1AF066EF1AF06EEF1AF0A1
:1034D000016C021ED8B0022A010E061A000E086EF8
:1034E000000E076E03500410D8B479EF1AF07BEF8A
:1034F0001AF0A3EF1AF0010E056E83EF1AF0D890C0
:1035000003360436052A04AE88EF1AF08AEF1AF063
:103510007FEF1AF0D890073608360350015C04504C
:103520000258D8A096EF1AF098EF1AF09DEF1AF013
:103530000350015E0450025A0780D89004320332CF
:10354000052E8AEF1AF00650D8B4A9EF1AF0ABEFA7
:103550001AF0AFEF1AF0076C081ED8B0082A07C09F
:1035600001F008C002F01200A60EF66E2D0EF76EE6
:10357000000EF86E04EE00F010EE8CF00900F5CFAE
:10358000EEFFE550E150FAE18A0EF66E300EF76E6E
:10359000000EF86E03EE00F010EEA4F00900F5CF77
:1035A000EEFFE550E150FAE1640EF66E250EF76E7F
:1035B000000EF86E02EEF0F010EE0EF00900F5CFFE
:1035C000EEFFE550E150FAE106EEC9F011EE91F0A0
:1035D000EE6AE550E150FCE1E250FAE106EE00F05F
:1035E000C90EEE6AE806FDE105EE00F0DD0EEE6ABA
:1035F000E806FDE104EE8CF0640EEE6AE806FDE1FB
:1036000003EEA4F02C0EEE6AE806FDE101EEDFF019
:103610000F0EEE6AE806FDE100EEF0F00F0EEE6A26
:10362000E806FDE1000EF86E0001C1EF5FF0000E4C
:103630000001B96F000EBA6F000EBB6F7A0EBC6F3F
:10364000BC0E496EE30E4A6E220E4B6EC30E4C6EDC
:1036500075C045F076C046F077C047F078C048F0B6
:10366000D4EC3EF045C0ADF046C0AEF047C0AFF080
:1036700048C0B0F0ADC071F0AEC072F0AFC073F032
:10368000B0C074F0AAEC48F071C0B1F072C0B2F0F2
:1036900073C0B3F074C0B4F0B9C013F0BAC014F082
:1036A000BBC015F0BCC016F0B1C00FF0B2C010F036
:1036B000B3C011F0B4C012F03EEC38F00FC0B5F05A
:1036C00010C0B6F011C0B7F012C0B8F0B5C00FF01E
:1036D000B6C010F0B7C011F0B8C012F0B9C013F006
:1036E000BAC014F0BBC015F0BCC016F03EEC38F008
:1036F0000FC075F010C076F011C077F012C078F0EE
:103700001200000E0D6E000E0C6E000E0D6ED3EF4B
:103710001BF00D500724D96E000E0820DA6E280E1B
:10372000DE18D8A496EF1BF098EF1BF0A6EF1BF065
:10373000000E016E060E026E0D500A6E0B6A0750E7
:103740000A24036EC1EC14F0D2EF1BF00D500724D5
:10375000D96E000E0820DA6E290EDE18D8A4B3EF59
:103760001BF0B5EF1BF0D2EF1BF0000E016E060E42
:10377000026E99EC13F00009D8B4C1EF1BF0C3EF4F
:103780001BF0CAEF1BF00950D96EDA6AFF0EDF6E2C
:10379000F5EF1BF0000E016E060E026E0C0E036EAE
:1037A00061EC15F00D2A0D500724D96E000E08208B
:1037B000DA6EDF50D8A4DFEF1BF0E1EF1BF089EFEA
:1037C0001BF0000E016E060E026E99EC13F000095C
:1037D000D8A4EDEF1BF0EFEF1BF0F1EF1BF0C3EF00
:1037E0001BF00950D96EDA6ADF6A1200C8C30BF009
:1037F000C9C30CF0CAC30DF0CBC30EF001C00BF06F
:1038000002C00CF003C00DF004C00EF00BC005F0B8
:103810000CC006F00DC007F00EC008F0180E16EF31
:103820001CF0D8900832073206320532E82E11EF2C
:103830001CF00550096E0A6A09500A10D8A423EF3B
:103840001CF025EF1CF045EF1CF0D8900B34056EF2
:103850000C34066E0D34076E0E34086E05500610DB
:1038600007100810D8A437EF1CF039EF1CF03FEF19
:103870001CF0000E026E020E016E74EF1CF0000EC2
:10388000026E030E016E74EF1CF009280A10D8A412
:103890004CEF1CF04EEF1CF070EF1CF00BC005F06D
:1038A0000CC006F00DC007F00EC008F0090ED8904D
:1038B0000536063607360836E82E57EF1CF0055059
:1038C000061007100810D8B468EF1CF06BEF1CF05E
:1038D000010E6CEF1CF0000E016E026A74EF1CF01A
:1038E000000E026E040E016E1200000E7114796E4D
:1038F000000E72147A6E800E73147B6E7F0E741439
:103900007C6E79507A107B107C10D8A48AEF1CF062
:103910008CEF1CF094EF1CF0000E716E000E726EB6
:10392000000E736E000E746E000E7514796E000E2C
:1039300076147A6E800E77147B6E7F0E78147C6E10
:1039400079507A107B107C10D8A4A9EF1CF0ABEF53
:103950001CF0B3EF1CF0000E756E000E766E000EBC
:10396000776E000E786E74AEB8EF1CF0BAEF1CF0F4
:10397000C3EF1CF0716C721ED8B0722A731ED8B0DF
:10398000732A800E745678AEC8EF1CF0CAEF1CF094
:10399000D3EF1CF0756C761ED8B0762A771ED8B09F
:1039A000772A800E7856000E711A000E721A000ED9
:1039B000731A800E741A000E751A000E761A000E15
:1039C000771A800E781A7550715C7650725877505D
:1039D000735878507458D8B0F0EF1CF0F2EF1CF028
:1039E000F5EF1CF0D890F6EF1CF0D8801200573499
:1039F00058345E6E5E50D8A400EF1DF002EF1DF04B
:103A00000CEF1DF0000E556E000E566E000E576E38
:103A1000000E586E79EF1DF055C059F056C05AF09F
:103A200057C05BF058C05CF0200E1CEF1DF0D89022
:103A30005C325B325A325932E82E17EF1DF0595082
:103A40005D6E578EFF0E5516FF0E5616FF0E57165B
:103A5000000E5816960E5E5E5EBE33EF1DF031EF1F
:103A60001DF049EF1DF05E50800A970FD8B03BEF74
:103A70001DF03DEF1DF03FEF1DF002EF1DF0D8905F
:103A800058325732563255325E3E3FEF1DF061EFED
:103A90001DF01F0E5E644FEF1DF051EF1DF059EF4A
:103AA0001DF002EF1DF0D890553656365736583671
:103AB0005E065E50D8A45FEF1DF061EF1DF053EF7E
:103AC0001DF05D50D8B467EF1DF069EF1DF071EF88
:103AD0001DF0581E571E561E556C000E56225722BA
:103AE000582255C055F056C056F057C057F058C030
:103AF00058F01200000E136E000E146E000E126EBF
:103B0000000E116E0B500C10D8B489EF1DF08BEF26
:103B10001DF093EF1DF00D50D8A491EF1DF093EF21
:103B20001DF097EF1DF0000E106E02EF1EF0000E5C
:103B3000136E000E126E12500B24016E000E0C203C
:103B4000026E000E036E04EC1EF0122A030E1264C5
:103B5000ACEF1DF0AEEF1DF09BEF1DF013500B24EA
:103B6000016E000E0C20026E010E036E04EC1EF0BE
:103B70000D0E0E6EFC0EE82EFED70E2EFCD7000E9C
:103B8000146E14500B240E6E000E0C200F6E040EDB
:103B90000E24016E000E0F20026E110E036E9BECC0
:103BA00019F0106E1104D8A4D8EF1DF0DAEF1DF053
:103BB000F0EF1DF013500A0D190EF3240E6EFE0ED9
:103BC000F4200F6E14500E26000E0F220EC0F6FFCA
:103BD0000FC0F7FF0D50D96EDA6A0800F5CFDFFF8E
:103BE000142A090E1464F7EF1DF0F9EF1DF0C1EF70
:103BF0001DF0132A030E136400EF1EF002EF1EF0F7
:103C000099EF1DF010501200010E0A6E01500210C3
:103C1000D8B40DEF1EF00FEF1EF020EF1EF001C024
:103C2000D9FF02C0DAFFDF30E832E832070B046E5A
:103C3000070E04641EEF1EF020EF1EF083EF1EF04F
:103C4000000E0A6E98EF1EF001C0D9FF02C0DAFF25
:103C5000DF30E832E832070B046E010E056E042AED
:103C600034EF1EF0D8900536042E32EF1EF00550CA
:103C7000FF0A066E01C0D9FF02C0DAFFDF50070B52
:103C8000076E0750020D820EF324D96E030EF42046
:103C9000DA6EDECF08F0DDCF09F008C0D9FF09C029
:103CA000DAFF0650DF1698EF1EF001C0D9FF02C000
:103CB000DAFFDF30E832E832070B046E010E056EE2
:103CC000042A65EF1EF0D8900536042E63EF1EF02F
:103CD00001C0D9FF02C0DAFFDF50070B066E0650A5
:103CE000020D820EF324D96E030EF420DA6EDECFBD
:103CF00007F0DDCF08F007C0D9FF08C0DAFF055094
:103D0000DF1298EF1EF00350046E056A0550000A9A
:103D1000D8B48DEF1EF020EF1EF00450000AD8B486
:103D200024EF1EF0010AD8B455EF1EF020EF1EF06C
:103D30000A501200000E1B6E17501810D8A4A3EFE3
:103D40001EF0A5EF1EF0A9EF1EF0000E1C6E2EEF68
:103D50001FF017C00BF018C00CF023EC16F01C6E0F
:103D6000010E17240B6E000E18200C6E23EC16F0BB
:103D70001C6E000E1B6E1B501724196E000E1820AF
:103D80001A6E020E19240B6E000E1A200C6E23EC14
:103D900016F01B2A070E1B64D0EF1EF0D2EF1EF0A8
:103DA000BBEF1EF01A0E196EF80EE82EFED7192E74
:103DB000FCD700D017C00EF018C00FF0380E106EF0
:103DC00019EC17F0070E196E7D0EE82EFED7192E8E
:103DD000FCD7000017C00EF018C00FF0380E106EA0
:103DE00019EC17F0320EE82EFED717C00EF018C0EF
:103DF0000FF0380E106E19EC17F017C00EF018C047
:103E00000FF0010E106E19EC17F017C00EF018C06D
:103E10000FF0020E106E19EC17F017C00EF018C05C
:103E20000FF0060E106E19EC17F017C00EF018C048
:103E30000FF0080E106E19EC17F017C00EF018C036
:103E40000FF0380E106E19EC17F017C00EF018C0F6
:103E50000FF0800E106E19EC17F01C6E1C50120043
:103E6000010E096E01500210D8B439EF1FF03BEF7C
:103E70001FF04CEF1FF001C0D9FF02C0DAFFDF30A6
:103E8000E832E832070B036E070E03644AEF1FF0B7
:103E90004CEF1FF0AFEF1FF0000E096EC6EF1FF0E2
:103EA00001C0D9FF02C0DAFFDF30E832E832070B89
:103EB000036E010E046E032A60EF1FF0D8900436E3
:103EC000032E5EEF1FF00450FF0A056E01C0D9FFFC
:103ED00002C0DAFFDF50070B066E0650020D8C0E93
:103EE000F324D96E030EF420DA6EDECF07F0DDCFB7
:103EF00008F007C0D9FF08C0DAFF0550DF16C6EF8B
:103F00001FF001C0D9FF02C0DAFFDF30E832E8322B
:103F1000070B036E010E046E032A91EF1FF0D89079
:103F20000436032E8FEF1FF001C0D9FF02C0DAFF65
:103F3000DF50070B056E0550020D8C0EF324D96E71
:103F4000030EF420DA6EDECF06F0DDCF07F006C0F8
:103F5000D9FF07C0DAFF0450DF12C6EF1FF001C01F
:103F6000D9FF02C0DAFFDFBCB8EF1FF0BBEF1FF0D4
:103F7000010EBCEF1FF0000E000AD8B450EF1FF086
:103F8000010AD8B481EF1FF04CEF1FF00950120066
:103F9000BA0E496E130E4A6E2F0E4B6EBD0E4C6E4E
:103FA0006B0E136ED30E146E0D0E156EBC0E166EC8
:103FB00055C00FF056C010F057C011F058C012F0A5
:103FC0003EEC38F00FC045F010C046F011C047F08D
:103FD00012C048F0D4EC3EF045C061F046C062F03B
:103FE00047C063F048C064F0750E496EAA0E4A6E71
:103FF0002A0E4B6E3E0E4C6E55C013F056C014F098
:1040000057C015F058C016F061C00FF062C010F034
:1040100063C011F064C012F03EEC38F00FC045F000
:1040200010C046F011C047F012C048F0D4EC3EF08A
:1040300045C065F046C066F047C067F048C068F00C
:1040400065C00FF066C010F067C011F068C012F0D4
:1040500055C013F056C014F057C015F058C016F0F4
:104060003EEC38F00FC059F010C05AF011C05BF0B0
:1040700012C05CF0AE0E136EE50E146E340E156EAB
:10408000BF0E166E55C00FF056C010F057C011F09D
:1040900058C012F03EEC38F00FC045F010C046F0AA
:1040A00011C047F012C048F0000E496E000E4A6E73
:1040B000800E4B6E3F0E4C6ED4EC3EF045C05DF072
:1040C00046C05EF047C05FF048C060F059C02CF0B9
:1040D0005AC02DF05BC02EF05CC02FF05DC030F0F8
:1040E0005EC031F05FC032F060C033F027EC2DF0DD
:1040F0002CC055F02DC056F02EC057F02FC058F0F0
:104100001200BA0E496E130E4A6E2F0E4B6EBD0E84
:104110004C6E6B0E136ED30E146E0D0E156EBC0E20
:10412000166E55C00FF056C010F057C011F058C0B1
:1041300012F03EEC38F00FC045F010C046F011C050
:1041400047F012C048F0D4EC3EF045C061F046C0E4
:1041500062F047C063F048C064F0750E496EAA0E65
:104160004A6E2A0E4B6E3E0E4C6E55C013F056C072
:1041700014F057C015F058C016F061C00FF062C0BF
:1041800010F063C011F064C012F03EEC38F00FC0C4
:1041900045F010C046F011C047F012C048F0D4EC12
:1041A0003EF045C065F046C066F047C067F048C0C5
:1041B00068F065C00FF066C010F067C011F068C00D
:1041C00012F055C013F056C014F057C015F058C087
:1041D00016F03EEC38F00FC059F010C05AF011C084
:1041E0005BF012C05CF0AE0E136EE50E146E340E72
:1041F000156EBF0E166E55C00FF056C010F057C0AA
:1042000011F058C012F03EEC38F00FC045F010C06D
:1042100046F011C047F012C048F0000E496E000E83
:104220004A6E800E4B6E3F0E4C6ED4EC3EF045C095
:104230005DF046C05EF047C05FF048C060F059C016
:104240002CF05AC02DF05BC02EF05CC02FF05DC08A
:1042500030F05EC031F05FC032F060C033F027EC68
:104260002DF02CC055F02DC056F02EC057F02FC0A9
:1042700058F0120019BE3FEF21F042EF21F0010E7D
:1042800043EF21F0000E206E0001F1BF4CEF21F052
:104290004AEF21F052EF21F0000E1F6E010E1E6E4C
:1042A00056EF21F0F0C01EF0F1C01FF0E3C11CF08A
:1042B000E4C11DF02050D8B460EF21F062EF21F08E
:1042C00079EF21F01C06D8A01D062050D8A46BEF72
:1042D00021F06DEF21F073EF21F0000E1B6E2B0E1D
:1042E0001A6E77EF21F0000E1B6E2D0E1A6E1AC09B
:1042F00020F0000E226E4F0E216E000E0401EF6FB3
:10430000B2EF21F02106D8A02206A00E2124D96EFA
:10431000040E2220DA6E18C001F019C002F0000E5F
:10432000046E0A0E036E43EC19F001C007F002C0E0
:1043300008F02CEC13F00750300FDF6E1E06D8A0EB
:104340001F061C06D8A01D0618C001F019C002F0F7
:10435000000E046E0A0E036E52EC1AF001C018F043
:1043600002C019F022BEBDEF21F0225008E1210465
:10437000D8A0BDEF21F0BFEF21F0D5EF21F018500C
:104380001910D8A4C6EF21F0C8EF21F082EF21F078
:104390001FBED5EF21F01F5006E11E04D8B0D3EFA9
:1043A00021F0D5EF21F082EF21F02050D8B4DBEFDF
:1043B00021F0DDEF21F0E8EF21F02106D8A0220660
:1043C000A00E2124D96E040E2220DA6E20C0DFFF59
:1043D00017C00FF0A00E2124106E040E2220116EC3
:1043E0001CC012F01DC013F0F0EC15F01200016EAD
:1043F000450E0118D8B4FFEF21F001EF22F06DEF68
:1044000022F0520E0118D8B408EF22F00AEF22F081
:104410006DEF22F0540E0118D8B411EF22F013EF13
:1044200022F06DEF22F0500E0118D8B41AEF22F0EE
:104430001CEF22F06DEF22F04B0E0118D8B423EFE1
:1044400022F025EF22F06DEF22F0590E0118D8B4BA
:104450002CEF22F02EEF22F06DEF22F0550E011816
:10446000D8B435EF22F037EF22F06DEF22F0490E8D
:104470000118D8B43EEF22F040EF22F06DEF22F0A9
:10448000400E0118D8B447EF22F049EF22F06DEF4B
:1044900022F0410E0118D8B450EF22F052EF22F072
:1044A0006DEF22F0530E0118D8B459EF22F05BEFF4
:1044B00022F06DEF22F0440E0118D8B462EF22F022
:1044C00064EF22F06DEF22F0570E0118D8A46BEFC5
:1044D00022F06DEF22F070EF22F0040EB9EF22F01F
:1044E0005E0E0118D8A477EF22F079EF22F07CEF6E
:1044F00022F0030EB9EF22F02A0E0118D8B483EF90
:1045000022F085EF22F097EF22F02F0E0118D8B499
:104510008CEF22F08EEF22F097EF22F0250E01189B
:10452000D8A495EF22F097EF22F09AEF22F0020E36
:10453000B9EF22F02B0E0118D8B4A1EF22F0A3EFAF
:1045400022F0B5EF22F02D0E0118D8B4AAEF22F018
:10455000ACEF22F0B5EF22F05F0E0118D8A4B3EF54
:1045600022F0B5EF22F0B8EF22F0010EB9EF22F001
:10457000000E1200096E0950D8B4C1EF22F0C3EF4B
:1045800022F0E5EF22F004BECAEF22F0C8EF22F0DD
:10459000E5EF22F001C005F002C006F003C007F00D
:1045A00004C008F0051E061E071E081E052A000E80
:1045B00006220722082205C00BF006C00CF007C037
:1045C0000DF008C00EF0EDEF22F001C00BF002C0BC
:1045D0000CF003C00DF004C00EF0015002100310E7
:1045E0000410D8A4F6EF22F0F8EF22F002EF23F047
:1045F000000E016E000E026E000E036E000E046EC1
:1046000093EF23F0960E0A6E0CEF23F00A2AD8904F
:104610000E320D320C320B32000E0B14056E000EF2
:104620000C14066E000E0D14076EFE0E0E14086EAE
:104630000550061007100810D8A421EF23F023EF2F
:1046400023F006EF23F031EF23F00A2A010E0B26A8
:10465000000E0C220D220E22D8900E320D320C329A
:104660000B32000E0B14056E000E0C14066E000EBD
:104670000D14076EFF0E0E14086E0550061007107D
:104680000810D8A446EF23F048EF23F025EF23F0DD
:1046900050EF23F00A06D8900B360C360D360E3646
:1046A0000DBE55EF23F057EF23F05FEF23F0020E1E
:1046B0000A605DEF23F05FEF23F04AEF23F00AB0CA
:1046C00064EF23F066EF23F067EF23F00D9ED890A0
:1046D0000A320AC005F0066A076A086A05C008F0CF
:1046E000076A066A056A05500B1206500C1207503D
:1046F0000D1208500E120950D8B481EF23F083EF49
:1047000023F08BEF23F004BE8AEF23F088EF23F031
:104710008BEF23F00E8E0BC001F00CC002F00DC029
:1047200003F00EC004F0120055C00FF056C010F098
:1047300057C011F058C012F055C013F056C014F015
:1047400057C015F058C016F03EEC38F00FC06DF0B1
:1047500010C06EF011C06FF012C070F06DC00FF09D
:104760006EC010F06FC011F070C012F06DC013F089
:104770006EC014F06FC015F070C016F03EEC38F04B
:104780000FC069F010C06AF011C06BF012C06CF07D
:10479000170E136E9A0E146ECC0E156E370E166E23
:1047A0006DC00FF06EC010F06FC011F070C012F04D
:1047B0003EEC38F00FC045F010C046F011C047F095
:1047C00012C048F03F0E496E040E4A6EB60E4B6E94
:1047D000BA0E4C6ED4EC3EF045C059F046C05AF0CB
:1047E00047C05BF048C05CF0000E496E000E4A6E98
:1047F000800E4B6E3F0E4C6E000E136E000E146E4C
:10480000000E156EBF0E166E6DC00FF06EC010F06C
:104810006FC011F070C012F03EEC38F00FC045F0E0
:1048200010C046F011C047F012C048F0D4EC3EF082
:1048300045C05DF046C05EF047C05FF048C060F024
:104840006DC013F06EC014F06FC015F070C016F09C
:1048500069C00FF06AC010F06BC011F06CC012F0AC
:104860003EEC38F00FC061F010C062F011C063F090
:1048700012C064F09F0E136EAA0E146E2A0E156EEF
:104880003D0E166E69C00FF06AC010F06BC011F0DB
:104890006CC012F03EEC38F00FC049F010C04AF086
:1048A00011C04BF012C04CF05DC045F05EC046F048
:1048B0005FC047F060C048F0D4EC3EF045C065F002
:1048C00046C066F047C067F048C068F065C045F074
:1048D00066C046F067C047F068C048F059C013F0A2
:1048E0005AC014F05BC015F05CC016F061C00FF048
:1048F00062C010F063C011F064C012F03EEC38F0FA
:104900000FC049F010C04AF011C04BF012C04CF07B
:10491000D4EC3EF045C055F046C056F047C057F0C5
:1049200048C058F01200A8C355F0A9C356F0AAC356
:1049300057F0ABC358F045C055F046C056F047C0DD
:1049400057F048C058F0810E496EFF0E4A6E55C0B0
:104950004BF056C04CF057C04DF058C04EF0180EFA
:10496000B7EF24F0D8904E324D324C324B32E82E15
:10497000B2EF24F04B504924536E000E4A20546E7F
:1049800054BECCEF24F0545009E1170E535CD8A06C
:10499000CCEF24F0CEEF24F0D8EF24F045C045F062
:1049A00046C046F047C047F048C048F09BEF25F0AE
:1049B00054BEDDEF24F0DFEF24F04FEF25F053C0BD
:1049C00049F0FF0E4A6EFF0E4B6E7F0E4C6E000ECE
:1049D0004D6E4966EEEF24F0F6EF24F04D344D3283
:1049E0004C324B324A32492EE9EF24F04AC04FF0A4
:1049F0004BC050F04CC051F04DC052F04F505514C8
:104A0000496E505056144A6E515057144B6E5250C6
:104A100058144C6E49504A104B104C10D8A413EF48
:104A200025F015EF25F017EF25F0CEEF24F055C057
:104A300049F056C04AF057C04BF058C04CF0200E19
:104A400027EF25F0D8904C324B324A324932E82ECB
:104A500022EF25F049504A104B104C10D8B433EFD8
:104A600025F035EF25F03DEF25F04F5055265050FD
:104A7000562251505722525058224F1C496E501CFA
:104A80004A6E511C4B6E521C4C6E495055164A5082
:104A900056164B5057164C50581693EF25F055C0EC
:104AA00049F056C04AF057C04BF058C04CF0200EA9
:104AB0005FEF25F0D8904C324B324A324932E82E23
:104AC0005AEF25F049504A104B104C10D8A46BEF08
:104AD00025F06DEF25F077EF25F0000E556E000EF6
:104AE000566E000E576E000E586E93EF25F0D8905C
:104AF0005534496E56344A6E57344B6E58344C6EAA
:104B000049504A104B104C10D8B489EF25F08BEF68
:104B100025F093EF25F0000E556E000E566E800EB8
:104B2000576EBF0E586E55C045F056C046F057C080
:104B300047F058C048F0120071C00FF072C010F07A
:104B400073C011F074C012F071C013F072C014F091
:104B500073C015F074C016F03EEC38F00FC098F03A
:104B600010C099F011C09AF012C09BF098C00FF0DD
:104B700099C010F09AC011F09BC012F098C013F0C9
:104B800099C014F09AC015F09BC016F03EEC38F0B6
:104B90000FC084F010C085F011C086F012C087F0FD
:104BA0003C0E136E6C0E146E360E156E360E166EAF
:104BB00098C00FF099C010F09AC011F09BC012F08D
:104BC0003EEC38F00FC045F010C046F011C047F081
:104BD00012C048F0CF0E496E070E4A6E500E4B6E53
:104BE000B90E4C6ED4EC3EF045C080F046C081F06A
:104BF00047C082F048C083F098C00FF099C010F011
:104C00009AC011F09BC012F071C013F072C014F082
:104C100073C015F074C016F03EEC38F00FC094F07D
:104C200010C095F011C096F012C097F0AB0E496E0F
:104C3000AA0E4A6E2A0E4B6EBE0E4C6E840E136E7A
:104C4000880E146E080E156E3C0E166E98C00FF08E
:104C500099C010F09AC011F09BC012F03EEC38F0F1
:104C60000FC045F010C046F011C047F012C048F028
:104C7000D4EC3EF045C088F046C089F047C08AF0C9
:104C800048C08BF084C013F085C014F086C015F0C6
:104C900087C016F094C00FF095C010F096C011F0C8
:104CA00097C012F03EEC38F00FC08CF010C08DF0C1
:104CB00011C08EF012C08FF071C049F072C04AF07E
:104CC00073C04BF074C04CF094C013F095C014F056
:104CD00096C015F097C016F088C00FF089C010F08C
:104CE0008AC011F08BC012F03EEC38F00FC045F0D6
:104CF00010C046F011C047F012C048F0D4EC3EF0AE
:104D000045C090F046C091F047C092F048C093F083
:104D100090C045F091C046F092C047F093C048F073
:104D200080C013F081C014F082C015F083C016F06B
:104D30008CC00FF08DC010F08EC011F08FC012F03B
:104D40003EEC38F00FC049F010C04AF011C04BF0F3
:104D500012C04CF0D4EC3EF045C071F046C072F089
:104D600047C073F048C074F0120028C036F029C064
:104D700037F02AC038F02BC039F02DBEC9EF26F02D
:104D80002D5009E1800E2C5CD8A0C9EF26F0CBEFA6
:104D900026F029EF27F036C00FF037C010F038C0EA
:104DA00011F039C012F0000E136E000E146E000EDA
:104DB000156E7F0E166E3EEC38F00FC036F010C048
:104DC00037F011C038F012C039F0810E2C26FF0EDA
:104DD0002D222DBEF5EF26F02D5009E1800E2C5C22
:104DE000D8A0F5EF26F0F7EF26F093EF27F036C0C6
:104DF0000FF037C010F038C011F039C012F0000EBB
:104E0000136E000E146E000E156E7F0E166E3EECC5
:104E100038F00FC036F010C037F011C038F012C0B3
:104E200039F0810E2C26FF0E2D222DBE21EF27F00A
:104E30002D5009E1800E2C5CD8A021EF27F023EF44
:104E400027F093EF27F0000E2D6E7F0E2C6E93EF60
:104E500027F02DAE35EF27F0820E2C5CFF0E2D587B
:104E6000D8B035EF27F037EF27F093EF27F036C0B3
:104E70000FF037C010F038C011F039C012F0000E3A
:104E8000136E000E146E800E156E0C0E166E3EEC38
:104E900038F00FC036F010C037F011C038F012C033
:104EA00039F0660E2C26000E2D222DAE61EF27F074
:104EB000820E2C5CFF0E2D58D8B061EF27F063EF07
:104EC00027F093EF27F036C00FF037C010F038C04E
:104ED00011F039C012F0000E136E000E146E800E29
:104EE000156E0C0E166E3EEC38F00FC036F010C08A
:104EF00037F011C038F012C039F0660E2C26000EC3
:104F00002D222DAE8DEF27F0820E2C5CFF0E2D583A
:104F1000D8B08DEF27F08FEF27F093EF27F0FF0E3B
:104F20002D6E820E2C6E7F0E2C242E6E000E2D20E8
:104F30002F6E306A316A170ED8902E362F363036E3
:104F40003136E82E9CEF27F02EC032F02FC033F020
:104F500030C034F031C035F032C00FF033C010F043
:104F600034C011F035C012F036C013F037C014F061
:104F700038C015F039C016F03EEC38F00FC028F0FC
:104F800010C029F011C02AF012C02BF028C028F060
:104F900029C029F02AC02AF02BC02BF01200D6C05D
:104FA000E2F0D7C0E3F0D8C0E4F0D9C0E5F00001EA
:104FB000E59F170EE25D720EE359310EE4593F0E84
:104FC000E559D8B0E6EF27F0E8EF27F07BEF28F0BF
:104FD000800EE45D390EE559D8B0F1EF27F0F3EF1C
:104FE00027F0FDEF27F0000ED66F000ED76F800E72
:104FF000D86F3F0ED96FF3EF28F0E2C080F0E3C026
:1050000081F0E4C082F0E5C083F0BEEC65F080C0C2
:10501000DEF081C0DFF082C0E0F083C0E1F0000E7E
:10502000136E000E146E000E156E400E166E000EFE
:10503000496E000E4A6E800E4B6E3F0E4C6EDEC007
:1050400045F0DFC046F0E0C047F0E1C048F0D4ECE6
:105050003EF045C00FF046C010F047C011F048C008
:1050600012F03EEC38F00FC030F010C031F011C03B
:1050700032F012C033F0DEC013F0DFC014F0E0C035
:1050800015F0E1C016F0DEC00FF0DFC010F0E0C098
:1050900011F0E1C012F03EEC38F00FC02CF010C05F
:1050A0002DF011C02EF012C02FF027EC2DF02CC0E7
:1050B000DAF02DC0DBF02EC0DCF02FC0DDF0DAC05E
:1050C00045F0DBC046F0DCC047F0DDC048F0000E24
:1050D000496E000E4A6E800E4B6E3F0E4C6ED4EC45
:1050E0003EF045C0D6F046C0D7F047C0D8F048C023
:1050F000D9F0F3EF28F0170EE25D720EE359B10E0E
:10510000E459420EE559D8B088EF28F08AEF28F02C
:10511000DCEF28F0E2C071F0E3C072F0E4C073F09D
:10512000E5C074F0AAEC48F071C0DEF072C0DFF0A8
:1051300073C0E0F074C0E1F0DEC049F0DFC04AF0B7
:10514000E0C04BF0E1C04CF0DEC030F0DFC031F029
:10515000E0C032F0E1C033F0000E2C6E000E2D6E78
:10516000800E2E6E3F0E2F6E27EC2DF02CC045F0DA
:105170002DC046F02EC047F02FC048F0D4EC3EF0D2
:1051800045C00FF046C010F047C011F048C012F003
:10519000000E136E000E146E000E156E3F0E166E8E
:1051A0003EEC38F00FC0D6F010C0D7F011C0D8F0E8
:1051B00012C0D9F0F3EF28F0000E0101E66F220EC5
:1051C000E56FE2C075F0E3C076F0E4C077F0E5C0CB
:1051D00078F017EC1BF075C0D6F076C0D7F077C02A
:1051E000D8F078C0D9F012000001B351D96EDA6A54
:1051F000DECFF6FFDDCFF7FF0800F550250AD8A473
:1052000004EF29F006EF29F025EF2AF0B351D96E0B
:10521000DA6ADE2A000EDD22000E0101E46F000EC4
:10522000E36FE3C1E7F10001F069F169B351D96EB1
:10523000DA6ADECFF6FFDDCFF7FF0800F5502E0A61
:10524000D8A425EF29F027EF29F037EF29F0B35143
:10525000D96EDA6ADE2A000EDD22B3C007F0B4C0D0
:1052600008F0ECEC18F007C0F0F008C0F1F0000115
:10527000B351D96EDA6ADECFBCF0DDCFBDF0BCC071
:10528000F6FFBDC0F7FF0800F550640AD8B44BEF35
:1052900029F04DEF29F05BEF29F0BCC0F6FFBDC04F
:1052A000F7FF0800F550690AD8A459EF29F05BEF21
:1052B00029F07EEF29F0B451D96EDA6A020EDF26AA
:1052C000DF5CD96EDA6ADECFB7F0DECFB8F0010E60
:1052D000BC25B56F000EBD21B66FB351D96EDA6A29
:1052E000B5C0DEFFB6C0DDFFB2C017F0B7C018F022
:1052F000B8C019F03AEC21F036EF2AF0B351D96E6C
:10530000DA6ADECFBCF0DDCFBDF0BCC0F6FFBDC0B9
:10531000F7FF0800F5CFBBF09AEF29F0BC4BBD2B8F
:10532000A9EF29F06C0EBB6FA9EF29F0000EBB6F3F
:10533000A9EF29F0BB514C0AD8B48EEF29F02A0A04
:10534000D8B492EF29F00A0AD8B48EEF29F096EF7C
:1053500029F0BCC0F6FFBDC0F7FF0800F550660A93
:10536000D8A4B5EF29F0B7EF29F01CEF2AF0E1EF50
:1053700029F0B451D96EDA6ADFCFB5F0040EDF261A
:10538000B551D96EDA6ADECFB7F0DECFB8F0DECF36
:10539000B9F0DECFBAF0ECEF29F0B451D96EDA6A89
:1053A000DFCFB5F0040EDF26B551D96EDA6ADECF55
:1053B000B7F0DECFB8F0DECFB9F0DECFBAF0ECEF69
:1053C00029F0BB514C0AD8B4CDEF29F0200AD8B44B
:1053D000B9EF29F0ECEF29F0010EBC25B56F000EF6
:1053E000BD21B66FB351D96EDA6AB5C0DEFFB6C063
:1053F000DDFF10EF2AF0B2C080F0B7C081F0B8C076
:1054000082F0B9C083F0BAC084F0BCC0F6FFBDC062
:10541000F7FF0800F5CF85F05EEC55F036EF2AF087
:10542000BCC0F6FFBDC0F7FF0800F550660AD8B44F
:10543000FBEF29F01CEF2AF00001B351D96EDA6AB4
:10544000DE2A000EDD2236EF2AF0B351D96EDA6A79
:10545000DECFF6FFDDCFF7FF0800F550016E026AE0
:10546000B2C003F0F5EC19F01CEF2AF01200000EA8
:10547000116E000E136E010E0E6E000E116E4AEFCD
:105480002BF011500724D96E000E0820DA6EDF5081
:10549000146E14C00BF0D00E0B26090E0B6453EFE4
:1054A0002AF055EF2AF067EF2AF0200E1418D8B42E
:1054B0005CEF2AF05EEF2AF067EF2AF02E0E141848
:1054C000D8A465EF2AF067EF2AF074EF2AF01350A2
:1054D0000924D96E000E0A20DA6E14C0DFFF132AE9
:1054E000000E0E6E49EF2BF02D0E1418D8A47BEF92
:1054F0002AF07DEF2AF0A4EF2AF01150D8B483EF00
:105500002AF085EF2AF067EF2AF0115007240B6E7E
:10551000000E08200C6EFF0E0B24D96EFF0E0C201F
:10552000DA6E280EDE18D8B498EF2AF09AEF2AF037
:1055300067EF2AF00E50D8B4A0EF2AF0A2EF2AF0BD
:10554000A4EF2AF067EF2AF0280E1418D8A4ABEFC6
:105550002AF0ADEF2AF0B7EF2AF0140E016E050E17
:10556000026E14C003F0C1EC14F049EF2BF0290EC9
:105570001418D8A4BEEF2AF0C0EF2AF02FEF2BF0BA
:10558000140E016E050E026E99EC13F00009D8A4FA
:10559000CCEF2AF0CEEF2AF049EF2BF0140E016E7B
:1055A000050E026E100E036E61EC15F0280E101839
:1055B000D8B4DDEF2AF0DFEF2AF0E8EF2AF013503D
:1055C0000924D96E000E0A20DA6E10C0DFFF132AFC
:1055D000140E016E050E026E99EC13F00009D8A4AA
:1055E000F4EF2AF0F6EF2AF049EF2BF0280E10180E
:1055F000D8A4FDEF2AF0FFEF2AF0CEEF2AF049EF12
:105600002BF0140E016E050E026E120E036EE6EC08
:1056100014F01450F7EC21F00B6E1250F7EC21F05F
:105620000C6E0C50800A0D6E0B50800A0D5CD8A0D9
:105630001CEF2BF01EEF2BF03DEF2BF0140E016E44
:10564000050E026E120E036E61EC15F01350092464
:10565000D96E000E0A20DA6E12C0DFFF132A140E74
:10566000016E050E026E99EC13F00009D8B43BEF01
:105670002BF03DEF2BF001EF2BF0140E016E050E19
:10568000026E14C003F0C1EC14F0010E0E6E49EF6F
:105690002BF0112A11500724D96E000E0820DA6E63
:1056A000DF50D8A456EF2BF058EF2BF041EF2AF043
:1056B0006BEF2BF0140E016E050E026E0F0E036ED3
:1056C00061EC15F013500924D96E000E0A20DA6E31
:1056D0000FC0DFFF132A140E016E050E026E99EC47
:1056E00013F00009D8B477EF2BF079EF2BF05AEFD5
:1056F0002BF013500924D96E000E0A20DA6EDF6AEF
:10570000120055C00FF056C010F057C011F058C02D
:1057100012F055C013F056C014F057C015F058C021
:1057200016F03EEC38F00FC0A4F010C0A5F011C088
:10573000A6F012C0A7F0CE0E136E150E146E1B0E3F
:10574000156E3C0E166EA4C00FF0A5C010F0A6C0DA
:1057500011F0A7C012F03EEC38F00FC045F010C0B9
:1057600046F011C047F012C048F0700E496EED0EC1
:105770004A6E420E4B6E3B0E4C6ED4EC3EF045C072
:10578000A0F046C0A1F047C0A2F048C0A3F09D0E13
:10579000136EEF0E146EC80E156E3C0E166EA4C07E
:1057A0000FF0A5C010F0A6C011F0A7C012F03EEC9B
:1057B00038F00FC045F010C046F011C047F012C0DD
:1057C00048F0490E496EA60E4A6E5A0E4B6E3D0EBB
:1057D0004C6ED4EC3EF045C080F046C081F047C02E
:1057E00082F048C083F0A4C00FF0A5C010F0A6C09E
:1057F00011F0A7C012F0A4C013F0A5C014F0A6C009
:1058000015F0A7C016F03EEC38F00FC098F010C0AD
:1058100099F011C09AF012C09BF0A4C00FF0A5C07F
:1058200010F0A6C011F0A7C012F055C013F056C07A
:1058300014F057C015F058C016F03EEC38F00FC009
:105840009CF010C09DF011C09EF012C09FF0EA0EB7
:10585000136E970E146E080E156E3E0E166EA4C0D3
:105860000FF0A5C010F0A6C011F0A7C012F03EECDA
:1058700038F00FC045F010C046F011C047F012C01C
:1058800048F06A0E496EAA0E4A6EAA0E4B6E3E0E84
:105890004C6ED4EC3EF045C084F046C085F047C065
:1058A00086F048C087F098C013F099C014F09AC0F1
:1058B00015F09BC016F09CC00FF09DC010F09EC06C
:1058C00011F09FC012F03EEC38F00FC088F010C00D
:1058D00089F011C08AF012C08BF080C049F081C0FD
:1058E0004AF082C04BF083C04CF0A0C013F0A1C0BE
:1058F00014F0A2C015F0A3C016F098C00FF099C024
:1059000010F09AC011F09BC012F03EEC38F00FC0BE
:1059100045F010C046F011C047F012C048F0D4EC7A
:105920003EF045C08CF046C08DF047C08EF048C0B8
:105930008FF055C049F056C04AF057C04BF058C0E0
:105940004CF084C013F085C014F086C015F087C0F9
:1059500016F09CC00FF09DC010F09EC011F09FC0CB
:1059600012F03EEC38F00FC045F010C046F011C008
:1059700047F012C048F0D4EC3EF045C090F046C06D
:1059800091F047C092F048C093F090C045F091C0AC
:1059900046F092C047F093C048F088C013F089C029
:1059A00014F08AC015F08BC016F08CC00FF08DC0BB
:1059B00010F08EC011F08FC012F03EEC38F00FC026
:1059C00049F010C04AF011C04BF012C04CF0D4ECBA
:1059D0003EF045C0A0F046C0A1F047C0A2F048C0CC
:1059E000A3F059505A10D8A4F8EF2CF0FAEF2CF08D
:1059F00004EF2DF0A0C094F0A1C095F0A2C096F0E5
:105A0000A3C097F01EEF2DF0000E2C6E000E2D6E31
:105A1000800E2E6EBF0E2F6EA0C030F0A1C031F0F0
:105A2000A2C032F0A3C033F027EC2DF02CC094F0CC
:105A30002DC095F02EC096F02FC097F094C055F071
:105A400095C056F096C057F097C058F012002F50EE
:105A5000800B3C6E2F502F24436E2EAE32EF2DF074
:105A600034EF2DF035EF2DF043804350D8B43BEFA9
:105A70002DF03DEF2DF052EF2DF04328D8A443EF49
:105A80002DF045EF2DF04DEF2DF0000E2C6E000E99
:105A90002D6E000E2E6E000E2F6E2E8E000E2F6EAF
:105AA0005AEF2DF0000E2C6E000E2D6E000E2E6E95
:105AB000000E2F6E3350800B3C1A33503324446E4B
:105AC00032AE65EF2DF067EF2DF068EF2DF04480DA
:105AD0004450D8B46EEF2DF070EF2DF085EF2DF01F
:105AE0004428D8A476EF2DF078EF2DF080EF2DF03C
:105AF000000E306E000E316E000E326E000E336EF0
:105B0000328E000E336E8DEF2DF0000E306E000ED3
:105B1000316E000E326E000E336E30503110321086
:105B20003310D8A496EF2DF098EF2DF0B0EF2DF0B4
:105B3000000E2C6E000E2D6E000E2E6E000E2F6EBF
:105B4000800E2E127F0E2F123C502F122CC02CF0E4
:105B50002DC02DF02EC02EF02FC02FF0F3EF2EF021
:105B60004350D8A4B6EF2DF0B8EF2DF0C2EF2DF0D2
:105B7000000E2C6E000E2D6E000E2E6E000E2F6E7F
:105B8000F3EF2EF0445043C034F0356A345E000E1B
:105B9000355A7F0E34243D6E000E35203E6E2CC0EB
:105BA00038F02DC039F02EC03AF02FC03BF0000E77
:105BB0002C6E000E2D6E000E2E6E000E2F6E000E3F
:105BC0003F6E000E406E000E416E000E426E000EE3
:105BD000446E23EF2EF04450D8B4F1EF2DF0F3EFE4
:105BE0002DF00AEF2EF0D890383639363A363B365B
:105BF000D8902C362D362E362F3642AE02EF2EF0B0
:105C000004EF2EF005EF2EF02C80D8903F36403672
:105C1000413642363050385C3150395832503A585B
:105C200033503B58D8A017EF2EF019EF2EF022EF8B
:105C30002EF0428C3050385E3150395A32503A5A38
:105C400033503B5A442A190E446429EF2EF02BEFAF
:105C50002EF0EBEF2DF0385039103A103B10D8B43D
:105C600034EF2EF036EF2EF04EEF2EF03F804EEF59
:105C70002EF0D8902C362D362E362F3642AE43EFEE
:105C80002EF045EF2EF046EF2EF02C80D8903F36C8
:105C90004036413642363D06D8A03E062EAE53EF82
:105CA0002EF055EF2EF039EF2EF0000E446E42AE7E
:105CB0005CEF2EF05EEF2EF082EF2EF0FF0E3F1421
:105CC000346EFF0E4014356EFF0E4114366E7F0E9B
:105CD0004214376E3450351036103710D8B473EF85
:105CE0002EF075EF2EF079EF2EF0010E446E82EF5C
:105CF0002EF02CA07EEF2EF080EF2EF082EF2EF013
:105D000075EF2EF04450D8B488EF2EF08AEF2EF0C5
:105D1000AEEF2EF0010E2C26000E2D222E222F2269
:105D20002FA095EF2EF097EF2EF0AEEF2EF02CC0B7
:105D300034F02DC035F02EC036F02FC037F0373498
:105D4000373236323532343234C02CF035C02DF093
:105D500036C02EF037C02FF03D4A3E2A3EBEB9EF86
:105D60002EF03E5008E13D28D8A0B9EF2EF0BBEF51
:105D70002EF0C6EF2EF0000E3E6E3D68000E2C6E2B
:105D8000000E2D6E000E2E6E000E2F6E3EBED3EF57
:105D90002EF03E5006E13D04D8B0D1EF2EF0D3EF07
:105DA0002EF0E1EF2EF0000E3E6E000E3D6E000E66
:105DB0002C6E000E2D6E000E2E6E000E2F6E000E3D
:105DC0003C6E3DC043F043A0E8EF2EF0EAEF2EF02A
:105DD000EDEF2EF02E8EEEEF2EF02E9ED89043306B
:105DE0002F6EA4EF2DF0120071C099F072C09AF0DE
:105DF00073C09BF074C09CF000019CBF02EF2FF0B9
:105E000005EF2FF0010E06EF2FF0000E906FFF0E42
:105E10009915996FFF0E9A159A6FFF0E9B159B6F40
:105E20007F0E9C159C6F800E9B5D3F0E9C59D8A0E9
:105E30001CEF2FF01EEF2FF072EF2FF0800E9B194A
:105E400009E13F0E9C1999119A11D8A42AEF2FF05D
:105E50002CEF2FF05AEF2FF0DB0E136E0F0E146E97
:105E6000C90E156E3F0E166E71C00FF072C010F0A5
:105E700073C011F074C012F03EEC38F00FC045F062
:105E800010C046F011C047F012C048F0000E496E35
:105E9000000E4A6E800E4B6E030E4C6ED4EC3EF03C
:105EA00045C071F046C072F047C073F048C074F04E
:105EB000C2EF30F0000E0101E66F210EE56FFF0E1C
:105EC0000001996FFF0E9A6FFF0E9B6F7F0E9C6F04
:105ED00099C071F09AC072F09BC073F09CC074F0CE
:105EE000C2EF30F03F0E9C5DD8B079EF2FF07BEF22
:105EF0002FF0F5EF2FF0800E9B5D390E9C59D8B036
:105F000084EF2FF086EF2FF09BEF2FF09C5109E1EB
:105F1000800E9B5DD8A08FEF2FF091EF2FF09BEFBD
:105F20002FF071C071F072C072F073C073F074C062
:105F300074F0C2EF30F071C013F072C014F073C08F
:105F400015F074C016F071C00FF072C010F073C07D
:105F500011F074C012F03EEC38F00FC080F010C0A9
:105F600081F011C082F012C083F080C055F081C072
:105F700056F082C057F083C058F081EC20F055C035
:105F800084F056C085F057C086F058C087F071C0C5
:105F900013F072C014F073C015F074C016F084C012
:105FA0000FF085C010F086C011F087C012F03EECF3
:105FB00038F00FC045F010C046F011C047F012C0D5
:105FC00048F071C049F072C04AF073C04BF074C021
:105FD0004CF0D4EC3EF045C071F046C072F047C0C2
:105FE00073F048C074F0C2EF30F071C001F072C0BD
:105FF00002F073C003F074C004F012EC13F001C09F
:106000006DF002C06EF003C06FF004C070F0000EBF
:10601000696E000E6A6E800E6B6E3F0E6C6E34EC15
:1060200014F069C00FF06AC010F06BC011F06CC0C2
:1060300012F0000E136E000E146E000E156E3F0E61
:10604000166E3EEC38F00FC095F010C096F011C0FF
:1060500097F012C098F095C001F096C002F097C07A
:1060600003F098C004F04FEC36F001C091F002C08C
:1060700092F003C093F004C094F095C055F096C020
:1060800056F097C057F098C058F081EC20F055C0FA
:1060900088F056C089F057C08AF058C08BF091C084
:1060A00049F092C04AF093C04BF094C04CF091C0BC
:1060B00013F092C014F093C015F094C016F088C08D
:1060C0000FF089C010F08AC011F08BC012F03EECC6
:1060D00038F00FC045F010C046F011C047F012C0B4
:1060E00048F0D4EC3EF045C08CF046C08DF047C07F
:1060F0008EF048C08FF0DB0E696E0F0E6A6EC90E0F
:106100006B6E3F0E6C6E000E136E000E146E000E62
:10611000156E400E166E8CC00FF08DC010F08EC044
:1061200011F08FC012F03EEC38F00FC06DF010C0CF
:106130006EF011C06FF012C070F034EC14F069C052
:1061400071F06AC072F06BC073F06CC074F0000143
:106150009051D8B4AEEF30F0B0EF30F091EF2FF0B7
:1061600071C028F072C029F073C02AF074C02BF0FF
:1061700061EC13F028C071F029C072F02AC073F0EE
:106180002BC074F01200A4C31CF1A5C31DF1A6C35B
:106190001EF1A7C31FF1D6C01CF1D7C01DF1D8C096
:1061A0001EF1D9C01FF1000E0101206F000E216FFA
:1061B000000E226F3F0E236F1CC1DAF01DC1DBF011
:1061C0001EC1DCF01FC1DDF0200EEDEF30F000014C
:1061D000D890DD33DC33DB33DA33E82EE7EF30F011
:1061E000DA51DB11DC11DD11D8B4F9EF30F0FBEF3F
:1061F00030F00DEF31F020C128F021C129F022C18B
:106200002AF023C12BF061EC13F028C020F129C043
:1062100021F12AC022F12BC023F101011F9F1CC1D3
:1062200014F11DC115F11EC116F11FC117F11CC1DA
:1062300018F11DC119F11EC11AF11FC11BF1170E72
:10624000185D720E1959B10E1A59420E1B59D8B069
:106250002CEF31F02EEF31F041EF32F014C180F02D
:1062600015C181F016C182F017C183F0BEEC65F054
:1062700080C024F181C025F182C026F183C027F1BE
:10628000800E01011A5D3F0E1B59D8B04AEF31F064
:106290004CEF31F0E7EF31F0800E1A5D390E1B59EB
:1062A000D8B055EF31F057EF31F061EF31F0D6C093
:1062B000D6F0D7C0D7F0D8C0D8F0D9C0D9F093EF76
:1062C00032F0000E496E000E4A6E800E4B6E3F0E8D
:1062D0004C6E24C145F025C146F026C147F027C1C8
:1062E00048F0D4EC3EF045C030F046C031F047C035
:1062F00032F048C033F024C113F025C114F026C198
:1063000015F027C116F024C10FF025C110F026C1E9
:1063100011F027C112F03EEC38F00FC02CF010C085
:106320002DF011C02EF012C02FF027EC2DF02CC054
:1063300000F12DC001F12EC002F12FC003F100C108
:106340006DF001C16EF002C16FF003C170F0000E7C
:10635000136E000E146E000E156E400E166E24C1E4
:106360000FF025C110F026C111F027C112F03EEC4C
:1063700038F00FC069F010C06AF011C06BF012C0A5
:106380006CF034EC14F069C004F16AC005F16BC024
:1063900006F16CC007F104C10FF005C110F006C191
:1063A00011F007C112F020C113F021C114F022C175
:1063B00015F023C116F03EEC38F00FC0D6F010C037
:1063C000D7F011C0D8F012C0D9F093EF32F0000E20
:1063D000496E000E4A6E800E4B6E3F0E4C6E24C10D
:1063E00045F025C146F026C147F027C148F0D4EC5E
:1063F0003EF045C030F046C031F047C032F048C0F2
:1064000033F024C12CF025C12DF026C12EF027C178
:106410002FF027EC2DF02CC008F12DC009F12EC073
:106420000AF12FC00BF124C149F025C14AF026C161
:106430004BF027C14CF008C145F009C146F00AC134
:1064400047F00BC148F0D4EC3EF045C00FF046C019
:1064500010F047C011F048C012F020C113F021C164
:1064600014F022C115F023C116F03EEC38F00FC035
:10647000D6F010C0D7F011C0D8F012C0D9F093EF09
:1064800032F0000EE66F220EE56F000E136E000E66
:10649000146E000E156E400E166E20C10FF021C155
:1064A00010F022C111F023C112F03EEC38F00FC001
:1064B0000CF110C00DF111C00EF112C00FF114C19A
:1064C00075F015C176F016C177F017C178F017ECAA
:1064D0001BF075C010F176C011F177C012F178C0D1
:1064E00013F10CC10FF00DC110F00EC111F00FC16E
:1064F00012F010C113F011C114F012C115F013C144
:1065000016F03EEC38F00FC024F110C025F111C098
:1065100026F112C027F124C1D6F025C1D7F026C13B
:10652000D8F027C1D9F01200D6C0E7F0D7C0E8F004
:10653000D8C0E9F0D9C0EAF00001EABFA2EF32F01A
:10654000A5EF32F0010EA6EF32F0000EDE6FEA9FEB
:10655000550EE75D9F0EE8590C0EE9593F0EEA59BA
:10656000D8A0B5EF32F0B7EF32F067EF33F0E705C0
:10657000000EE859200EE959410EEA59D8A0C3EFA0
:1065800032F0C5EF32F0F3EF32F0E7C030F0E8C0A0
:1065900031F0E9C032F0EAC033F0000E2C6E000E8C
:1065A0002D6E000E2E6E000E2F6E27EC2DF02CC0DF
:1065B00045F02DC046F02EC047F02FC048F0000E29
:1065C000496E000E4A6E800E4B6E3F0E4C6ED4EC40
:1065D0003EF045C0E3F046C0E4F047C0E5F048C0F7
:1065E000E6F049EF34F0E7C00FF0E8C010F0E9C082
:1065F00011F0EAC012F0000E136E000E146E000EC1
:10660000156E400E166E3EEC38F00FC0DFF010C075
:10661000E0F011C0E1F012C0E2F0DFC080F0E0C0B5
:1066200081F0E1C082F0E2C083F0BEEC65F080C092
:10663000E3F081C0E4F082C0E5F083C0E6F0000E34
:10664000496E000E4A6E000E4B6E400E4C6EE3C05B
:1066500045F0E4C046F0E5C047F0E6C048F0D4ECB1
:106660003EF045C030F046C031F047C032F048C07F
:1066700033F0000E2C6E000E2D6E000E2E6E400EAE
:106680002F6E27EC2DF02CC0DAF02DC0DBF02EC0E1
:10669000DCF02FC0DDF0000E696E000E6A6E800E19
:1066A0006B6E3F0E6C6EDAC06DF0DBC06EF0DCC05E
:1066B0006FF0DDC070F034EC14F069C0E3F06AC034
:1066C000E4F06BC0E5F06CC0E6F049EF34F0790E11
:1066D000E75DC50EE859820EE9593E0EEA59D8A089
:1066E00074EF33F076EF33F0D0EF33F0E7C00FF014
:1066F000E8C010F0E9C011F0EAC012F0000E136E0D
:10670000000E146E000E156E400E166E3EEC38F044
:106710000FC0DFF010C0E0F011C0E1F012C0E2F0F5
:10672000DFC080F0E0C081F0E1C082F0E2C083F021
:10673000BEEC65F080C0E3F081C0E4F082C0E5F01B
:1067400083C0E6F0E3C02CF0E4C02DF0E5C02EF0ED
:10675000E6C02FF0000E496E000E4A6E000E4B6E22
:10676000400E4C6EE3C045F0E4C046F0E5C047F093
:10677000E6C048F0D4EC3EF045C030F046C031F001
:1067800047C032F048C033F027EC2DF02CC0E3F0C6
:106790002DC0E4F02EC0E5F02FC0E6F049EF34F054
:1067A000EA5109E1800EE95DD8A0D9EF33F0DBEFC3
:1067B00033F03FEF34F0E7C00FF0E8C010F0E9C06D
:1067C00011F0EAC012F0000E136E000E146E000EEF
:1067D000156EC00E166E3EEC38F00FC0DFF010C024
:1067E000E0F011C0E1F012C0E2F0DFC080F0E0C0E4
:1067F00081F0E1C082F0E2C083F0BEEC65F080C0C1
:10680000E3F081C0E4F082C0E5F083C0E6F0E3C0CD
:1068100028F0E4C029F0E5C02AF0E6C02BF061ECD6
:1068200013F028C02CF029C02DF02AC02EF02BC068
:106830002FF0000E496E000E4A6E000E4B6E400E99
:106840004C6EE3C045F0E4C046F0E5C047F0E6C05A
:1068500048F0D4EC3EF045C030F046C031F047C0BF
:1068600032F048C033F027EC2DF02CC0E3F02DC0FF
:10687000E4F02EC0E5F02FC0E6F049EF34F0000E52
:10688000D66F000ED76F000ED86F000ED96F6EEF67
:1068900034F00001DE51D8A450EF34F052EF34F060
:1068A0005CEF34F0E3C0D6F0E4C0D7F0E5C0D8F038
:1068B000E6C0D9F06EEF34F0E3C028F0E4C029F070
:1068C000E5C02AF0E6C02BF061EC13F028C0D6F04A
:1068D00029C0D7F02AC0D8F02BC0D9F01200C0C30D
:1068E00089F0C1C38AF0C2C38BF0C3C38CF071C0FE
:1068F00089F072C08AF073C08BF074C08CF0000114
:106900008CBF85EF34F088EF34F0010E89EF34F05E
:10691000000E886F8C9FDB0E895D0F0E8A59C90EA1
:106920008B594D0E8C59D8B098EF34F09AEF34F063
:1069300085EF35F071C001F072C002F073C003F052
:1069400074C004F012EC13F001C091F002C092F098
:1069500003C093F004C094F0000E496E000E4A6E1E
:10696000000E4B6E3F0E4C6E830E136EF90E146EBE
:10697000220E156E3F0E166E91C00FF092C010F0F1
:1069800093C011F094C012F03EEC38F00FC045F007
:1069900010C046F011C047F012C048F0D4EC3EF0F1
:1069A00045C055F046C056F047C057F048C058F0B3
:1069B000F7EC1CF055C095F056C096F057C097F014
:1069C00058C098F095C001F096C002F097C003F04F
:1069D00098C004F0010EBAEC22F001C08DF002C0A4
:1069E0008EF003C08FF004C090F0DA0E136E0F0E1D
:1069F000146EC90E156E3F0E166E8DC00FF08EC050
:106A000010F08FC011F090C012F03EEC38F00FC0C3
:106A10006DF010C06EF011C06FF012C070F091C038
:106A200069F092C06AF093C06BF094C06CF034ECE3
:106A300014F069C084F06AC085F06BC086F06CC049
:106A400087F084C069F085C06AF086C06BF087C0AB
:106A50006CF0A30E136E850E146E880E156E320E3A
:106A6000166E8DC00FF08EC010F08FC011F090C068
:106A700012F03EEC38F00FC06DF010C06EF011C097
:106A80006FF012C070F034EC14F07550D96EDA6A01
:106A900069C0DEFF6AC0DEFF6BC0DEFF6CC0DEFFD8
:106AA00000018851D8B457EF35F059EF35F07FEF3A
:106AB00035F07550D96EDA6ADECF28F0DECF29F0D6
:106AC000DECF2AF0DECF2BF061EC13F07550D96EDB
:106AD000DA6A28C0DEFF29C0DEFF2AC0DEFF2BC035
:106AE000DEFF95C076F096C077F0761E771E764A68
:106AF000772A76C071F077C072F04EEF36F095C00D
:106B000071F096C072F04EEF36F071C001F072C0B5
:106B100002F073C003F074C004F012EC13F001C073
:106B200091F002C092F003C093F004C094F0000E04
:106B3000496E000E4A6E000E4B6E3F0E4C6E830E79
:106B4000136EF90E146E220E156E3F0E166E91C066
:106B50000FF092C010F093C011F094C012F03EEC10
:106B600038F00FC045F010C046F011C047F012C019
:106B700048F0D4EC3EF045C055F046C056F047C052
:106B800057F048C058F0F7EC1CF055C095F056C0CF
:106B900096F057C097F058C098F095C001F096C095
:106BA00002F097C003F098C004F0010EBAEC22F096
:106BB00001C08DF002C08EF003C08FF004C090F0D1
:106BC000DA0E136E0F0E146EC90E156E3F0E166E92
:106BD0008DC00FF08EC010F08FC011F090C012F079
:106BE0003EEC38F00FC06DF010C06EF011C06FF0C9
:106BF00012C070F091C069F092C06AF093C06BF05F
:106C000094C06CF034EC14F069C084F06AC085F074
:106C10006BC086F06CC087F084C069F085C06AF0F4
:106C200086C06BF087C06CF0A30E136E850E146ED9
:106C3000880E156E320E166E8DC00FF08EC010F0DD
:106C40008FC011F090C012F03EEC38F00FC06DF024
:106C500010C06EF011C06FF012C070F034EC14F080
:106C600069C080F06AC081F06BC082F06CC083F0B4
:106C70007550D96EDA6A80C0DEFF81C0DEFF82C047
:106C8000DEFF83C0DEFF00018851D8B44AEF36F042
:106C90004CEF36F07FEF35F059EF35F0120001C0C0
:106CA00022F002C023F003C024F004C025F0000E3F
:106CB0002214056E000E2314066E800E2414076E37
:106CC0007F0E2514086E800E071809E17F0E081844
:106CD00005100610D8A46FEF36F071EF36F0A1EF73
:106CE00036F0FF0E2214056EFF0E2314066E7F0E83
:106CF0002414076E000E2514086E055006100710A8
:106D00000810D8A486EF36F088EF36F08FEF36F013
:106D100025BE8FEF36F08DEF36F097EF36F0FF0E91
:106D20002212FF0E23127F0E2412000E251222C003
:106D300001F023C002F024C003F025C004F03DEFB1
:106D400038F025BEB0EF36F025502410231006E1B0
:106D50002204D8B0AEEF36F0B0EF36F0E7EF36F001
:106D6000FF0E2214056EFF0E2314066EFF0E241470
:106D7000076E7F0E2514086E0550061007100810C8
:106D8000D8A4C5EF36F0C7EF36F0D1EF36F0000EDD
:106D9000016E000E026E000E036E000E046E3DEFDB
:106DA00038F025BED8EF36F0D6EF36F0E7EF36F004
:106DB000000E0101E66F210EE56FFF0E226EFF0E41
:106DC000236EFF0E246E7F0E256E97EF36F0170EA2
:106DD000056E22C006F023C007F024C008F025C0CD
:106DE00009F00566F6EF36F0FEEF36F009340932A9
:106DF000083207320632052EF1EF36F006C01AF0DF
:106E000007C01BF008C01CF009C01DF01A501B1071
:106E10001C101D10D8A40FEF37F011EF37F041EF21
:106E200037F0000E0E6E000E0F6E000E106E000E8C
:106E3000116E26EF37F0D8902236233624362536C9
:106E4000010E0E26000E0F221022112224AE2BEF6F
:106E500037F02DEF37F01BEF37F0FF0E0E24056EE5
:106E6000FF0E0F20066EFF0E1020076EFF0E112082
:106E7000086E05501A5E06501B5A07501C5A0850DF
:106E80001D5A810E1A26FF0E1B22FF0E1C22FF0E1A
:106E90001D22FF0E2214056EFF0E2314066E7F0EB8
:106EA0002414076E000E2514086E000E0510226EC5
:106EB000000E0610236E800E0710246E000E0810C0
:106EC000256E1AA066EF37F068EF37F070EF37F0F5
:106ED00022502226235023222450242225502522CA
:106EE0001D341D321C321B321A32225022262350EE
:106EF00023222450242225502522000E0A6E000E43
:106F00000B6E000E0C6E000E0D6E0AC012F00BC060
:106F100013F00CC014F00DC015F0000E1E6E000E24
:106F20001F6E000E206E010E216EDFEF37F00A504B
:106F30001E24166E0B501F20176E0C502020186E4A
:106F40000D502120196E1650225C175023581850EE
:106F500024582550800A056E1950800A0558D8A07B
:106F6000B4EF37F0B6EF37F0D2EF37F016501E24FB
:106F70000A6E17501F200B6E185020200C6E1950EF
:106F800021200D6E1650225E1750235A1850245A95
:106F90001950255A1E5012261F5013222050142219
:106FA000215015222250222623502322245024220D
:106FB00025502522D890213220321F321E321E50F9
:106FC0001F1020102110D8A4E8EF37F0EAEF37F0B7
:106FD00097EF37F02250231024102510D8B4F3EF88
:106FE00037F0F5EF37F009EF38F0010E1214056EA7
:106FF000000E1314066E000E1414076E000E151406
:10700000086E05501226065013220750142208500D
:10701000152212C005F013C006F014C007F015C009
:1070200008F008340832073206320532000E052413
:10703000226E000E0620236E000E0720246E3F0EE7
:107040000820256E1AC005F01BC006F01CC007F012
:107050001DC008F0170ED8900536063607360836DC
:10706000E82E2BEF38F00550222606502322075039
:1070700024220850252297EF36F012001250800B80
:107080001B6E12501224216E11AE49EF38F04BEFF7
:1070900038F04CEF38F021802150D8B452EF38F05E
:1070A00054EF38F067EF38F02128D8A45AEF38F0C1
:1070B0005CEF38F064EF38F0000E0F6E000E106ECB
:1070C000000E116E000E126E118E6FEF38F0000E72
:1070D0000F6E000E106E000E116E000E126E165026
:1070E000800B1B1A165016241C6E15AE7AEF38F062
:1070F0007CEF38F07DEF38F01C801C50D8B483EF63
:1071000038F085EF38F098EF38F01C28D8A48BEFD2
:1071100038F08DEF38F095EF38F0000E136E000E5A
:10712000146E000E156E000E166E158EA0EF38F060
:10713000000E136E000E146E000E156E000E166E0D
:107140001C50D8B4A6EF38F0A8EF38F0B0EF38F004
:107150002150D8A4AEEF38F0B0EF38F0BAEF38F0E5
:10716000000E0F6E000E106E000E116E000E126EED
:1071700052EF3AF015500F02F3CF26F0F4CF27F07C
:1071800026501D6E1E6A1F6A206A2750226E236ACF
:10719000246A256A14501002F3CF26F0F4CF27F0AA
:1071A00026501D26000E1E221F2220222750222696
:1071B000000E23222422252213501102F3CF26F0A1
:1071C000F4CF27F026501D26000E1E221F2220225B
:1071D00027502226000E2322242225221FC020F021
:1071E0001EC01FF01DC01EF01D6A13501002F3CF09
:1071F00026F0F4CF27F026501D2627501E22000E21
:107200001F22000E202214500F02F3CF26F0F4CFDD
:1072100027F026501D2627501E22000E1F22000E8A
:1072200020221FC020F01EC01FF01DC01EF01D6ACE
:1072300013500F02F3CF26F0F4CF27F026501D266F
:1072400027501E22000E1F22000E20221550100271
:10725000F3CF26F0F4CF27F0265022262750232202
:10726000000E2422000E252214501102F3CF26F026
:10727000F4CF27F02650222627502322000E242266
:10728000000E252215501102F3CF26F0F4CF27F07F
:107290002650176E2750186E196A1A6A19C01AF00C
:1072A00018C019F017C018F0176A17502226185086
:1072B0002322195024221A5025221DC017F01EC067
:1072C00018F01FC019F020C01AF0190E6DEF39F038
:1072D000D8901A32193218321732E82E68EF39F086
:1072E0001750222618502322195024221A502522E2
:1072F0001FC020F01EC01FF01DC01EF01D6A1C50D4
:1073000021C017F0186A1726000E1822820E1724C3
:10731000266EFF0E1820276EA3EF39F0D890223684
:1073200023362436253620AE98EF39F09AEF39F01F
:107330009BEF39F02280D8901D361E361F3620363E
:107340002606D8A0270624AEA8EF39F0AAEF39F018
:107350008EEF39F0000E1C6E20AEB1EF39F0B3EFB6
:1073600039F0D7EF39F0FF0E1D14176EFF0E1E1403
:10737000186EFF0E1F14196E7F0E20141A6E175010
:10738000181019101A10D8B4C8EF39F0CAEF39F034
:10739000CEEF39F0010E1C6ED7EF39F022A0D3EFFB
:1073A00039F0D5EF39F0D7EF39F0CAEF39F01C508A
:1073B000D8B4DDEF39F0DFEF39F003EF3AF0010E2A
:1073C0002226000E23222422252225A0EAEF39F0CE
:1073D000ECEF39F003EF3AF022C017F023C018F0B9
:1073E00024C019F025C01AF01A341A321932183292
:1073F000173217C022F018C023F019C024F01AC0A9
:1074000025F0264A272A27BE0EEF3AF0275008E13A
:107410002628D8A00EEF3AF010EF3AF01AEF3AF023
:10742000000E226E000E236E800E246E7F0E256EDF
:1074300048EF3AF027BE27EF3AF0275006E126043E
:10744000D8B025EF3AF027EF3AF033EF3AF0000EDC
:10745000226E000E236E000E246E000E256E000EAE
:107460001B6E48EF3AF026C021F0FF0E2216FF0EE9
:1074700023167F0E2416000E251621A042EF3AF0A7
:1074800044EF3AF045EF3AF0248ED8902130256E43
:107490001B50251222C00FF023C010F024C011F0A1
:1074A00025C012F01200A8C0C2F0A9C0C3F0AAC043
:1074B000C4F0ABC0C5F00001C5BF61EF3AF064EFA6
:1074C0003AF0010E65EF3AF0000EBD6FC59FDB0E7E
:1074D000C25D0F0EC359490EC4593F0EC559D8B0ED
:1074E00074EF3AF076EF3AF0A3EF3AF0800EC45D15
:1074F000390EC559D8B07FEF3AF081EF3AF08BEFF3
:107500003AF0A8C0A8F0A9C0A9F0AAC0AAF0ABC0E0
:10751000ABF07BEF3CF0A8C055F0A9C056F0AAC074
:1075200057F0ABC058F0000E5A6E000E596E81EC49
:107530002BF055C0A8F056C0A9F057C0AAF058C00B
:10754000ABF07BEF3CF0D20EC25D530EC3597B0E05
:10755000C459400EC559D8B0B0EF3AF0B2EF3AF086
:107560006DEF3BF0E40EC25DCB0EC359160EC4594D
:10757000400EC559D8B0BFEF3AF0C1EF3AF017EF5F
:107580003BF0BD51D8A4C7EF3AF0C9EF3AF0E5EFB0
:107590003AF0A8C045F0A9C046F0AAC047F0ABC079
:1075A00048F0DB0E496E0F0E4A6EC90E4B6EBF0ED1
:1075B0004C6ED4EC3EF045C0ACF046C0ADF047C0D8
:1075C000AEF048C0AFF0FFEF3AF0A8C045F0A9C058
:1075D00046F0AAC047F0ABC048F0DB0E496E0F0E74
:1075E0004A6EC90E4B6E3F0E4C6ED4EC3EF045C059
:1075F000ACF046C0ADF047C0AEF048C0AFF0ACC094
:1076000055F0ADC056F0AEC057F0AFC058F0000E08
:107610005A6E010E596E81EC2BF055C0A8F056C081
:10762000A9F057C0AAF058C0ABF07BEF3CF0BD51B9
:10763000D8A41DEF3BF01FEF3BF03BEF3BF0A8C0A1
:1076400045F0A9C046F0AAC047F0ABC048F0DB0E39
:10765000496E0F0E4A6E490E4B6EC00E4C6ED4EC46
:107660003EF045C0B0F046C0B1F047C0B2F048C0EF
:10767000B3F055EF3BF0A8C045F0A9C046F0AAC052
:1076800047F0ABC048F0DB0E496E0F0E4A6E490E54
:107690004B6E400E4C6ED4EC3EF045C0B0F046C090
:1076A000B1F047C0B2F048C0B3F0B0C055F0B1C0BF
:1076B00056F0B2C057F0B3C058F0000E5A6E000E2C
:1076C000596E81EC2BF055C0A8F056C0A9F057C0F8
:1076D000AAF058C0ABF07BEF3CF0D60EC25D310E85
:1076E000C359E20EC459400EC559D8B07AEF3BF0E9
:1076F0007CEF3BF037EF3CF0E00EC25DED0EC3597E
:10770000AF0EC459400EC559D8B089EF3BF08BEF8E
:107710003BF0E1EF3BF0BD51D8A491EF3BF093EF8C
:107720003BF0AFEF3BF0A8C045F0A9C046F0AAC0BF
:1077300047F0ABC048F0E40E496ECB0E4A6E960E91
:107740004B6EC00E4C6ED4EC3EF045C0B4F046C05B
:10775000B5F047C0B6F048C0B7F0C9EF3BF0A8C0DD
:1077600045F0A9C046F0AAC047F0ABC048F0E40E0F
:10777000496ECB0E4A6E960E4B6E400E4C6ED4EC9C
:107780003EF045C0B4F046C0B5F047C0B6F048C0C2
:10779000B7F0B4C055F0B5C056F0B6C057F0B7C09A
:1077A00058F0000E5A6E010E596E81EC2BF055C048
:1077B000A8F056C0A9F057C0AAF058C0ABF07BEFB4
:1077C0003CF0BD51D8A4E7EF3BF0E9EF3BF005EF0B
:1077D0003CF0A8C045F0A9C046F0AAC047F0ABC035
:1077E00048F0DB0E496E0F0E4A6EC90E4B6EC00E8E
:1077F0004C6ED4EC3EF045C0B8F046C0B9F047C07E
:10780000BAF048C0BBF01FEF3CF0A8C045F0A9C0DB
:1078100046F0AAC047F0ABC048F0DB0E496E0F0E31
:107820004A6EC90E4B6E400E4C6ED4EC3EF045C015
:10783000B8F046C0B9F047C0BAF048C0BBF0B8C015
:1078400055F0B9C056F0BAC057F0BBC058F0000EA2
:107850005A6E000E596E81EC2BF055C0A8F056C040
:10786000A9F057C0AAF058C0ABF07BEF3CF0800EF7
:10787000C45D7F0EC559D8A040EF3CF042EF3CF00C
:1078800054EF3CF0FF0EC213FF0EC313FF0EC413E0
:10789000000EC513C2C0A8F0C3C0A9F0C4C0AAF0AE
:1078A000C5C0ABF07BEF3CF0A8C071F0A9C072F08E
:1078B000AAC073F0ABC074F0BE0E756E6FEC34F0FE
:1078C0007150010B0001BC6FBEC055F0BFC056F037
:1078D000C0C057F0C1C058F0BC51596E5A6A59BE69
:1078E0005A0681EC2BF055C0A8F056C0A9F057C03D
:1078F000AAF058C0ABF01200C4C365F0C5C366F06F
:10790000C6C367F0C7C368F055C065F056C066F0DF
:1079100057C067F058C068F0FF0E65146D6EFF0E1B
:1079200066146E6EFF0E67146F6E7F0E6814706EB5
:10793000800E6F5C7F0E7058D8A0A1EF3CF0A3EFD3
:107940003CF0BFEF3CF055C045F056C046F057C084
:1079500047F058C048F055C049F056C04AF057C0EB
:107960004BF058C04CF0D4EC3EF045C055F046C04A
:1079700056F047C057F048C058F0D3EF3EF0705073
:1079800007E1800E6F5CD8B0C8EF3CF0CAEF3CF066
:1079900025EF3DF06D506E106F107010D8A4D3EF2E
:1079A0003CF0D5EF3CF0DFEF3CF055C055F056C051
:1079B00056F057C057F058C058F0D3EF3EF055C0BE
:1079C0000FF056C010F057C011F058C012F0000E62
:1079D000136E000E146E800E156E4B0E166E3EEC7E
:1079E00038F00FC065F010C066F011C067F012C02B
:1079F00068F0FF0E65146D6EFF0E66146E6EFF0E5E
:107A000067146F6E7F0E6814706E6DC001F06EC0EB
:107A100002F06FC003F070C004F0030E056E000E9C
:107A2000066E000E076E000E086EF3EC17F0F20EF5
:107A300001246D6E190E02206E6E510E03206F6EC2
:107A4000260E0420706E43EF3DF06DC001F06EC055
:107A500002F06FC003F070C004F0030E056E000E5C
:107A6000066E000E076E000E086EF3EC17F0F20EB5
:107A700001246D6E190E02206E6E510E03206F6E82
:107A80002A0E0420706E000E6516000E6616000E9B
:107A90006716800E68166D5065126E5066126F5034
:107AA00067127050681265C071F066C072F067C0EE
:107AB00073F068C074F071C013F072C014F073C03A
:107AC00015F074C016F071C00FF072C010F073C0E2
:107AD00011F074C012F03EEC38F00FC059F010C035
:107AE0005AF011C05BF012C05CF059C00FF05AC0E0
:107AF00010F05BC011F05CC012F071C013F072C0E6
:107B000014F073C015F074C016F03EEC38F00FC0DE
:107B100069F010C06AF011C06BF012C06CF055C073
:107B200049F056C04AF057C04BF058C04CF055C011
:107B300045F056C046F057C047F058C048F0D4EC66
:107B40003EF045C05DF046C05EF047C05FF048C003
:107B500060F069C049F06AC04AF06BC04BF06CC07D
:107B60004CF055C045F056C046F057C047F058C0DD
:107B700048F0D4EC3EF045C061F046C062F047C02A
:107B800063F048C064F071C013F072C014F073C0A9
:107B900015F074C016F069C049F06AC04AF06BC0B5
:107BA0004BF06CC04CF05DC045F05EC046F05FC06D
:107BB00047F060C048F0D4EC3EF045C00FF046C03E
:107BC00010F047C011F048C012F03EEC38F00FC082
:107BD0002CF010C02DF011C02EF012C02FF069C093
:107BE00049F06AC04AF06BC04BF06CC04CF061C009
:107BF00045F062C046F063C047F064C048F0D4EC82
:107C00003EF045C030F046C031F047C032F048C0C9
:107C100033F027EC2DF02CC071F02DC072F02EC087
:107C200073F02FC074F071C013F072C014F073C001
:107C300015F074C016F071C00FF072C010F073C070
:107C400011F074C012F03EEC38F00FC059F010C0C3
:107C50005AF011C05BF012C05CF059C00FF05AC06E
:107C600010F05BC011F05CC012F071C013F072C074
:107C700014F073C015F074C016F03EEC38F00FC06D
:107C800069F010C06AF011C06BF012C06CF055C002
:107C900049F056C04AF057C04BF058C04CF055C0A0
:107CA00045F056C046F057C047F058C048F0D4ECF5
:107CB0003EF045C05DF046C05EF047C05FF048C092
:107CC00060F069C049F06AC04AF06BC04BF06CC00C
:107CD0004CF055C045F056C046F057C047F058C06C
:107CE00048F0D4EC3EF045C061F046C062F047C0B9
:107CF00063F048C064F071C013F072C014F073C038
:107D000015F074C016F069C049F06AC04AF06BC043
:107D10004BF06CC04CF05DC045F05EC046F05FC0FB
:107D200047F060C048F0D4EC3EF045C00FF046C0CC
:107D300010F047C011F048C012F03EEC38F00FC010
:107D40002CF010C02DF011C02EF012C02FF069C021
:107D500049F06AC04AF06BC04BF06CC04CF061C097
:107D600045F062C046F063C047F064C048F0D4EC10
:107D70003EF045C030F046C031F047C032F048C058
:107D800033F027EC2DF02CC071F02DC072F02EC016
:107D900073F02FC074F071C055F072C056F073C00C
:107DA00057F074C058F012004850800B516E485084
:107DB0004824536E47AEDFEF3EF0E1EF3EF0E2EFD6
:107DC0003EF053805350D8B4E8EF3EF0EAEF3EF077
:107DD000FFEF3EF05328D8A4F0EF3EF0F2EF3EF074
:107DE000FAEF3EF0000E456E000E466E000E476E36
:107DF000000E486E478E000E486E07EF3FF0000EF3
:107E0000456E000E466E000E476E000E486E4C50DA
:107E1000800B526E51505218D8B411EF3FF013EF4F
:107E20003FF014EF3FF0518C4C504C24526E4BAE4F
:107E30001CEF3FF01EEF3FF01FEF3FF0528052501B
:107E4000D8B425EF3FF027EF3FF03CEF3FF052284A
:107E5000D8A42DEF3FF02FEF3FF037EF3FF0000EAB
:107E6000496E000E4A6E000E4B6E000E4C6E4B8E2D
:107E7000000E4C6E44EF3FF0000E496E000E4A6E4D
:107E8000000E4B6E000E4C6E5350525CD8B04BEF50
:107E90003FF04DEF3FF074EF3FF051AC52EF3FF049
:107EA00054EF3FF056EF3FF0800E511A53C054F09C
:107EB00052C053F054C052F045C054F049C045F090
:107EC00054C049F046C054F04AC046F054C04AF08D
:107ED00047C054F04BC047F054C04BF048C054F07A
:107EE0004CC048F054C04CF0000E546E535052C079
:107EF0004DF04E6A4D5E000E4E5A4EBE89EF3FF079
:107F00004E5009E11A0E4D5CD8A089EF3FF08BEF7F
:107F10003FF0C2EF3FF04550461047104810D8A43C
:107F200094EF3FF097EF3FF0010E98EF3FF0000E17
:107F3000546E000E456E000E466E000E476E000E2B
:107F4000486E52C053F0CBEF3FF054A0AAEF3FF081
:107F5000ACEF3FF0B2EF3FF0D89054300109546ECF
:107F6000B4EF3FF0D890543245A0B9EF3FF0BBEFEB
:107F70003FF0BCEF3FF0548E48344832473246322F
:107F80004532532A5250535CD8A0C9EF3FF0CBEF93
:107F90003FF0A5EF3FF051BCD0EF3FF0D2EF3FF004
:107FA00012EF40F05350D8A4D8EF3FF0DAEF3FF093
:107FB000E4EF3FF0000E456E000E466E000E476E79
:107FC000000E486E33EF41F0495045264A50462294
:107FD0004B5047224C50482248A0F1EF3FF0F3EFBE
:107FE0003FF09FEF40F054A0F8EF3FF0FAEF3FF082
:107FF00000EF40F0D89054300109546E02EF40F089
:10800000D890543245A007EF40F009EF40F00AEF56
:1080100040F0548E48344832473246324532532A73
